:020000040800F2
:10600000081000201F840008612901086529010883
:1060100065EC000869290108712901081D84000840
:106020001D8400081D8400081D8400081D840008CC
:106030007529010890D501081D8400081D840008F9
:10604000AD8900081D8400081D8400081D84000817
:106050001D8400081D8400081D8400081D8400089C
:106060001D8400081D8400081D8400088BEC0008B6
:1060700089EC00081D8400081D8400081D840008A8
:106080001D8400081D8400081D8400081D8400086C
:106090001D840008FDEF00081D8400081D84000811
:1060A0001D840008818400085D8400081D840008A8
:1060B0001D8400085D2A01081D2A0108B1AB0108F2
:1060C000B5AB0108A52A0108B9AB0108BDAB0108B1
:1060D0006D330108C1AB01081933010839350108D6
:1060E0001D8400081D8400081D8400081D8400080C
:1060F0001D8400081D8400081D8400081D840008FC
:106100001D8400081D8400081D8400081D840008EB
:106110001D8400081D8400081D8400081D840008DB
:106120001D8400081D8400081D8400081D840008CB
:106130001D8400081D8400081D8400081D840008BB
:106140001D8400081D8400081D84000881C5010805
:10615000753501081D8400086D340108A13401085B
:106160001D8400081D8400081D8400081D8400088B
:1061800070B5104A104C114DE3695E0714D408280D
:1061900001D12B4213D103EA00068E4207D10B4AEC
:1061A0001A40002A14BF6FF00100002070BD013AB0
:1061B000EAD16FF00200F9E74FF0FF30F6E76FF039
:1061C0000100F3E7809698000000035002000100F0
:1061D00000000000000000000000000000000000BF
:1061E000013800D0FCE770474FF480332DE9804838
:1061F000AF4995B04B66AF4B9B691A0B03F03F0359
:106200008DF83C208DF83D30BDF83C30B3F5807FF3
:106210000FD14FF48012A84B586E4A66A7494B6BBA
:1062200023F0E05343F040634B63C3025CBFA44BD5
:106230005A66EFF31183302282F31188A14C94F84F
:10624000BD27002A40F06385012284F8BD2783F32F
:106250001188BFF36F8F6FF0040350259A4A9B4952
:1062600013F0800F03F1010040F049850B444C28E6
:1062700083F800530346F3D14FF000438C4E0722BE
:1062800073664AF6CD33924D0B206F6C2B64914BA5
:10629000DA6308F021FC6B68012023F4F87343F4FF
:1062A00080736B6040F20913AB6040F203132B6103
:1062B0000AF0A8FBFF0748BF874B4FF0800048BF9C
:1062C0002B647D4B596E4FF0004373664AF6CD3315
:1062D0006E6C2B6408F000FC2B6AF60723F00F03AA
:1062E00043F009032B6248BF7B4B7C4848BF2B64BB
:1062F0000029A2BF4FF00042714B5A6616F026FBF0
:10630000774AD2F84C3113F4802300F006854FF021
:106310007E6292F89C3092F99C20002AB8BF2C2310
:106320004FF40001624A022051664FF4D15102F548
:10633000B83251626B494F2B486028BF4F23012070
:1063400001F58051DBB24860116911F48031FBD155
:1063500043F48073536140F201439360604B51609A
:10636000D3F84C21100300F1DC84D3F85051EDB286
:106370005D4B5E4A5E4E1A604F4B96F900701B6F84
:106380002F4403F00703032B87F3080701D116F00E
:1063900051FA08F01DFE03284BD04FF48012444BF5
:1063A0004FF0A0615A6645F60E03444AC2F88030A9
:1063B000504B99624FF4803103F580539962936D8D
:1063C000D903FCD4936D5B00FCD44B4B13619369F0
:1063D00003F0004343EA074343EA052343F0007315
:1063E00043F03C039361136A23F00F031362916A35
:1063F000424B0B4043F48033936241492F4A936DE3
:1064000031EA0303FBD14FF080713A48816213698E
:1064100023F4700343F4401313614FF000434FF42F
:1064200080328361374B99629A62244A936D580097
:10643000FCD44FF4C0222A4BD3F898501C4B5A6618
:1064400003F598335A68012A00F0728408F0C0FD01
:1064500005280CD100212C4808F012FB164A136FB6
:1064600043F4806313674FF48032114B1A67DFF8EF
:10647000A480264BD8F8007025F040759F4202D8C2
:1064800021480CF03DFA224BDA6812F0060FFBD1DE
:106490009A689D6099684D4015F4F81F0DBF1A4D1C
:1064A0009A603D46C8F8005008F092FD052833E098
:1064B0000090005000C00750008000500040005A7B
:1064C00000A00050E015002000ED00E000E100E039
:1064D00000400950004000503254FFFF98D6010898
:1064E0000080E00F00100250884A0020C0175302BD
:1064F0008C4A00200050005A2008C00BC7FFFEFE47
:10650000030001000060005A00B4C404FFB3C404D7
:1065100000000150844A00200FD116F08BF980460C
:1065200008F084FA0128D4BF01210021404608F078
:10653000A7FA0BF07FFE0BF06DFEBD4202D80020E3
:106540000CF0DEF94FF40022C64DC74BC748D3F814
:10655000C0306A664FF0B44223F04073936016F087
:10656000F5F94FF4800302226B66C14B5A609D68B7
:1065700015F48035FBD1BF4F5D625D600CF0A0F972
:106580003B6F284623F0070343F003033B670CF0FF
:10659000BFF93B6FB84923F474433B67D1F8FC2043
:1065A00012F080721EBFD1F8FC3023F08073C1F866
:1065B000FC300021D7F8803023F0030343F00103BF
:1065C000C7F88030A74BC3F8801032B1AA4AD2F87E
:1065D000FC3043F08073C2F8FC30A64B4FF480319E
:1065E000D3F82021A54822F0070242F00202C3F8A6
:1065F0002021D3F8282122F0070242F00202C3F83A
:106600002821D3F8802122F0030242F00102C3F8CE
:106610008021D3F8402122F0030242F00202C3F8A5
:106620004021D3F8602122F0030242F00202C3F8B5
:106630006021D3F8402222F0030242F00202C3F8A4
:106640004022D3F8002222F0070242F00202C3F8EF
:106650000022D3F8082222F0070242F00202C3F817
:106660000822D3F8702222F0030242F00102C3F89C
:106670007022D3F8202222F0070242F00102C3F870
:106680002022784A5F6E5166426A22F0010242621D
:10669000FA035CBF7A4A51664FF0E0210A6942F082
:1066A00004020A61D3F8602222F0070242F00102DC
:1066B000C3F86022D3F8942222F0070242F00102CC
:1066C000C3F894226F4B5A6F42F001025A67DA6E98
:1066D00022F03002DA66EFF31188302383F3118859
:1066E00094F8BE37002B45D1674A6848C4F8203279
:1066F000C4F8A430136016F029F9BFF34F8F644833
:1067000008F028FA4368012B0BD14168012906D112
:10671000436815F029FC022303615E4B596008F0C1
:1067200019FA0027C76015F029FC0F22594B4FF0CA
:10673000010987645A641A6408F00CFA0821564B60
:10674000C3F80490C0F8109015F00EFC534A87610E
:10675000C2F88811432009F0A3FD4F4B1320C3F862
:1067600044900FA916F0F5F80F9A4D4B1A60002AC5
:1067700040F0E58288F31188BFF36F8F09F0CCFFFA
:106780003D4A4848D2F8C030474F23F0FF0343F05A
:10679000A003B8424549C2F8C03000F0DB8227F0C0
:1067A0001F03203BB3F1005F80F0D582404B0A68A5
:1067B000314823F01F0343F00303C0F89820C0F8CA
:1067C0009C303C4B0132C0F8A0300A60BFF35F8FB1
:1067D0000522294BC3F894205A6A42F480325A6247
:1067E000BFF34F8FBFF36F8FBFF34F8FBFF36F8F29
:1067F000326B4FF40031531C04BF224BD3F894206A
:106800004FF0502308BF3263D707196700F1B482F5
:1068100001210C46084604FA00F3134001F101017E
:1068200000F0AC82244B03EB4003B3F8AC30234AB6
:10683000062B116822480C918AB24FEA114140F0B0
:10684000A4824FF20F03994240F09C82B2F5406F50
:1068500028BF4FF4C06202804FF000534CF23C322C
:106860005A802FE0009000500080E00F9CD6010875
:10687000004002500080005000ED00E000C00750D2
:1068800000A00050004000509812002098D6010847
:1068900000800A5000A00A5000900A5000E100E079
:1068A0009C120020804A0020204A0020A4150020CD
:1068B0009F4A0020E1FF0320F4D5010800000020DA
:1068C00030130020CC4A536A43F470235362EFF331
:1068D00008834FF0CD31C94A043B934280F0668271
:1068E000C74816F033F816F031F8012300220421CE
:1068F0000FA8ADF83C3005F0B5FFC24B0FAA03F16D
:106900001006144618685968083303C4B342224677
:10691000F7D118680DF13809494620600A2016F0B1
:1069200018F8B74816F012F8403016F00FF80E9C21
:1069300008F0FCF9B449B54BA14228BF2146B4FB8D
:10694000F1F41A69013C22F0870242F081021A61D7
:106950009A6822F0030242F001029A605A6922F01A
:106960000F0242F002025A611A6922F07F4242EAA3
:1069700004621A619DF83F2019699DF840001201D8
:1069800042EAC01221F0F8010A439DF8471042EA9A
:10699000C1029DF8421042EA81121A61D8689DF83E
:1069A0004F209DF84E40120420F0F04042EAC462AD
:1069B00020F4702002439DF83E009DF8411042EA09
:1069C000802242EAC132DA609A689DF8460022F4D9
:1069D000C04242EA40324FF480609A608C4A906034
:1069E0005C6A9DF84B208B4802F003022040024372
:1069F0009DF84800000100F0700002439DF8490036
:106A0000000200F4E06002439DF84A00000300F435
:106A1000E04002439DF84500000400F4702002436A
:106A20005A62BDF84C209A6121B10022A3F5D0230F
:106A3000C3F880209DF842301BB19DF84420764B6E
:106A4000DA6701240426724940F6FF7008F064F901
:106A50004C6008F061F98E6308F05EF94FF48173C1
:106A60008C63224631460DA8ADF8343005F0FAFEAD
:106A700040F20223214600220BA8ADF82C3005F08D
:106A8000F1FE40F20233224631460AA8ADF8283022
:106A900005F0E8FE40F202433146224609A8ADF86F
:106AA000243005F0DFFE5D4B5D4A1024C3F8C82496
:106AB0004FF00212C3F8C424A2F58032C3F8CC24EC
:106AC0001C22584EC3F8B4244FF4487008F00CFB55
:106AD0001420C6F8A04008F007FB534B2320C3F84E
:106AE000A04008F001FB494BC6F8A0409A6C56063E
:106AF000FCD5B9225A649A6C1406FCD51022DB6BC3
:106B0000494B08A8C3F8A02000224FF48173114616
:106B1000ADF8203005F0A6FE002240F20223114617
:106B200007A8ADF81C3005F09DFE40F202330122AB
:106B3000002106A8ADF8183005F094FE40F202439B
:106B40000122002105A8ADF8143005F08BFE08F0F5
:106B5000EDF80021314C3548C4F8B414C4F8C81419
:106B6000C4F8C414C4F8CC1415F08AF94FF00063CB
:106B70009B6A2F4C03F17842B2F5C04F80F09580AC
:106B80001A682C4B9A4240F0908094F8BF6716F038
:106B9000FD0640F08A80284F3B78002B00F00981E9
:106BA00002233B704FF0010A4FF48038234B002042
:106BB000C3F880A1224BC3F80C8009F071FB214B74
:106BC000C3F810804FF000639B6ADB69984797F821
:106BD00000B08046D34540F0D68102F0ABFE0130D4
:106BE00040F09181D4F8D027174B1A66D4F8D427F7
:106BF0005A66D4F8D82729E000ED00E0080000200C
:106C000094D60108C0D60108E070720000000A5056
:106C100000100A508C88F0FF0080035000C0035021
:106C20000200030000E0035000D00350D4D6010856
:106C3000E015002007B0CD5E2C12002000E100E03E
:106C400000A000440090004400800044C3F870217C
:106C5000D4F8DC271A64D4F8E0275A64D4F8EC2777
:106C6000D20700F18D81AF4B1A6D013207D194F834
:106C7000BF2722B9AC494968C90748BF1A65D4F88B
:106C8000E427AA4B5A66D4F8E8279A660DF054FD1B
:106C9000D4F8C03783F31188BFF36F8F3E70B8F11B
:106CA000000F02D1012384F8BF37EFF3118730239F
:106CB00083F31188D4F8A8309D4A9E49183B13F1FC
:106CC000180F40F06281D4F8D880B8F1000F00F0BE
:106CD000AB8204210820984A08F093FB60B9042194
:106CE0000820964A08F08DFB0646002800F0A08296
:106CF000D4F8000815F04CF9C4F8D88048E103F046
:106D00000F03043B13441D760346FFF7A9BA83F330
:106D10001188BFF36F8FFFF7AFBAD2F85021FFF79A
:106D2000FFBA874B1D88FF2D88BF5F25FFF720BB6B
:106D300084494A605A689107FCD4FFF787BB3B46F9
:106D400040F2E73180480BF04FFE804B84F8BE974D
:106D500018600FE57E4B0C68DFF820C2C2F898403F
:106D600043F001030134B842C2F89CC0C2F8A0301D
:106D70000C603FF42BAD19E5002053E510297FF49A
:106D800049AD54E54FF4C06265E540F20724A342E3
:106D90000AD14FF20F04A14206D19A4202BF4FF02E
:106DA00000524CF23C31518003808BE543F80419CA
:106DB00093E54FF00108CDE90D6687F80080EFF309
:106DC0001183302282F31188C4F8C0370DF0BCFC67
:106DD00094F8C43763B95F495F4806F00BFF38B9D0
:106DE0005D4804F5F9610AF083FF08B984F8C487A7
:106DF0004E4B5A495A6EC4F8E4279B6EC4F8E837E4
:106E00004FF480438B66564B5A68C4F8EC27554ABA
:106E10009A601A6EC4F8D0275A6EC4F8D427D3F8F3
:106E20007021C4F8D8271A6CC4F8DC275A6CC4F84F
:106E3000E0274D4A106C1864526C5A6401224A666D
:106E40001B6E980448D5494AD368D907FCD4354B02
:106E50001A6D501C45D04FF480139340444A13667A
:106E60000422434B4FF000681A664FF400721A6612
:106E700008221A664FF480521A664FF40022C3F8B3
:106E800060805A66D8F8283003F17843B3F5C04FD4
:106E900011D201238DF83C3000230FA8CDE9103327
:106EA00009F064FD119B590505D5D8F828304946ED
:106EB0001B6C0DA898470D9A2D4B1A660E9A5A66B0
:106EC00094F8C427002A3FF46DAED4F8C8271A6698
:106ED000D4F8CC275A6665E6264AD368DB07FCD48B
:106EE000B5E794F8BF37002BBAD14FF400721B4BB3
:106EF0005A6603F5A6235B68002BB1D14FF48012CC
:106F00001B4B1A66ACE702F015FD40F201139842E4
:106F10003FF468AE184B154AC3F864B0D368D8077D
:106F2000FCD45FE68C4A002000C005500080005071
:106F3000D01D0020D8D60108E01D0020E41D00204F
:106F40000001E00F00E0015018FCFFFF08100020D6
:106F500000000420C04A00203012002000900050A1
:106F60000080004455CEAC0000C000540000044036
:106F700000900044000004500090004003000020F6
:106F800000229A606FE6564688E6934240F04581BB
:106F900087F31188BFF36F8FBF49C04806F02AFE00
:106FA000BF4815F0D3FC4FF440730122042148463A
:106FB000ADF8383005F056FC0122BA4B0520C3F875
:106FC00044240FA915F0C5FC002839D1B64BD3F8DD
:106FD000F02042F00102C3F8F020D3F8FC2042F088
:106FE0008072C3F8FC20B14AA3F55D431A600F9B81
:106FF000AF4A03F5D52303F2FC43B3FBF2F3AD4AEA
:10700000013B13610223C2F8F0304FF48073C2F8E1
:1070100004334FF06043A84AC3F8B02FA74AC3F81F
:10702000802ED3F8002E42F48072C3F8002EFF2287
:1070300083F82020D3F8002E22F48072C3F8002EAB
:107040009F4E974815F082FC33689A0106D44FF0A2
:1070500000731920C6F8803109F022F933685B010A
:1070600006D44FF080631A20C6F8803109F018F971
:107070004FF060464FF0020CD6F8003E0FA843F4E4
:107080008073C6F8003E8F4BCDE90FC307F0A0FE1A
:107090000122D6F8003E042123F48073C6F8003E96
:1070A000ADF83C2005F0DEFB94F8292294F8283254
:1070B000022A01D1072B1DD0DF0703D443F00103BF
:1070C00084F8283299075FBF012143F0020384F856
:1070D000341984F828322AB97B4802F067FC02236D
:1070E00084F8293294F828325F0703D443F004036C
:1070F00084F8283215F006FB6B4B744E5B680BF07E
:1071000017FA08F013F80220714B0FA9CDE90F030D
:107110004FF04073CDE9116305236E4E4FF0FF3001
:10712000139314F038F800214FF0FF3014F0FDF8FD
:1071300006F120070DF06AF920220021304614F0F4
:1071400009F818220021384614F004F80022624B96
:1071500062491A77996062491A62D9606149C3E944
:107160000026196160499A615961604B60490120AC
:10717000996060491A77D9605F49C3E900271961AE
:107180005E491A6259619A6114F0EEFF03460028C5
:1071900040F0A68141F60B22002000214FF6FF7B34
:1071A0004FF0010A564FC6E94B01BA80554A7F217C
:1071B000C4F84029544810223B600293ADF834B023
:1071C0008DF836A013F0C6FF7F21504A4FF0FF33F1
:1071D00011704F4A0F931288029BA4F850294D4A10
:1071E00006F59A78126806F5AC76C4F858294A4A2A
:1071F000414612880FA8A4F85229484AC4F8606989
:107200001268C4F85C298022A4F854291A460DF0AB
:10721000FDF9002800F08C80FEE7186888423FF4F2
:10722000B7AE9B69183B4AE53D4BC4F8D83050E5F2
:10723000D4F8A830DFF8F480C4F80838394BC4F823
:10724000F40784F8FC07C4F8F807A8F16400C4F850
:10725000A830C4F8F08715F079FBA8F1600015F0AC
:1072600075FB4FF40012164B1520C3F8802109F06E
:1072700017F84FF0F0522C4B9A60FF229E619A62F1
:107280004FF0FF329E631E6403F500531A6501221E
:10729000A3F580535A607BE6C04A002030120020DC
:1072A00094D6010800D0035000ED00E0FF03004039
:1072B000F8590D00000004E055CEACC509000100EE
:1072C00000E100E0006A18100C1800200003040020
:1072D000006A1800EC1D00200C10002065DE00087C
:1072E000097D0008418A0008BDDE0008301000203A
:1072F000C98A0008157D0008F98A0008018B00087A
:107300004813002051BB00085113002050130020E7
:10731000EC0A0208F00A0208E40A0208E80A020875
:10732000D01D0020E81D002000000450D8D6010820
:107330007F490F980DF0D0F800B1FEE702210F98B9
:1073400013F0F1FF00B1FEE77A490F980DF030F924
:1073500000B1FEE751460F9813F090FF00B1FEE731
:1073600051460F9813F07CFF014600B1FEE7402222
:10737000714813F0EFFE4FF0FF326F4B51460F98FC
:10738000DFF800A29A8783F83EB00DF0C5F80F9899
:10739000CAF8000000B9FEE740F2222658E90213BD
:1073A000664AB34208BF91420BD09FED5F8B4FF00E
:1073B000FF328DED008B4FF0FF3313F0EAFE08ED46
:1073C000028B06215E4802F0C3FB0121084614F03F
:1073D000B3FEDAF800000DA90DF0C4F8064600B1BE
:1073E000FEE7584B584A18609880584B90801360BD
:1073F000A3F25C72C4F858229C228433C4F864322D
:10740000534BC4F880021A70A4F85C0202F036FEF6
:10741000066002F0EEFE031D00F1B40219461033BF
:107420009A42066006D13B790B2B02D87B790A2B56
:1074300004D8FEE743F8106C0E46EFE7454B1F609B
:1074400007F074FE062002F0A7FC0822DAF800001C
:10745000114613F0A3FE064600B1FEE70146DAF836
:10746000000013F0E7FE314618223B4813F072FE8D
:107470003A4802F0CEFA12223146394813F06AFE39
:107480004FF6FE73364A22F8023CEFF3108072B6D4
:107490004FF01008334F3E60BE60A7F8048015F02F
:1074A000BCFA314B314EBB6090234FF0FF314FF4AB
:1074B00010600FAAC6E9028307F0E0FE00282FD172
:1074C0000F220F9BC6E90033F168013A1944196095
:1074D000F16892B20B44002AF6D14FF0FF321A60E5
:1074E000234A136B5E1C08BF224B234E04BFD3F804
:1074F00094301363214A13604FF050234FF400324D
:107500001A6796F8C830002B40F0B0804FF6FF7233
:107510001B4FC6E90133F3603B88934234D1FEE749
:10752000FEE700BFAFF300800AE020FF2202000068
:1075300007001100F0D60108A01200200AE020FF89
:1075400048130020A815002088140020C41F002024
:107550005E140020441300201C180020401300205B
:1075600062140020B8140020BBCA010804150020D2
:107570008C4A002000400050581000205014002079
:10758000141400202C130020CBB9C5F104010FAA5C
:1075900089B209EB050008F008FE002840F0C4801D
:1075A0000F9B1D44032DF0D90E9B002B00F0BD80D6
:1075B0006FF00042934208BF0123884A13603B8862
:1075C000002501333B8000F0CEFB854F854B706179
:1075D00000F180403946844A3062A7F11400F3611B
:1075E000B561776202F0ECFE804B4FF6FF78C6E99A
:1075F0000A35FB23B3637E4B07F144003365C6E9CC
:107600000C55C6E9165502F04FFD07F1540002F083
:107610004BFD07F1640002F047FD764B07F11C00BB
:10762000C6F8983007F17C03C6F8A030724BA6F874
:10763000B880C6F8BC3007F1A003C6F8C43003F028
:1076400099F90B2307F11C0086F82830C6E90C5580
:10765000F562A6F82A8003F08DF986F8C85002F08A
:107660007BFE0123C6F8CC0086F8C830634D0027A6
:107670002B4643F8D16B6B60614B05F10408AB609E
:107680004FF480534046AB81C5E90477C4F8786A6B
:1076900003F04AFA2B46C5F8508004259846013D70
:1076A000C3E9157703F10803F9D1C823554800222F
:1076B000C8E928034FF6FF73A8F8A830524B0421FD
:1076C000C8E92B350023514FC8E91E55C8E920559C
:1076D000C8E92255C8E92E23C8E93023C7E9565521
:1076E000C7E95855C7E95C23A8F8745088F8985042
:1076F000C8F89C50C8F8B45088F8C810C8F8CC50E6
:1077000088F8D050A7F8D250A7F84C5187F84F51BD
:10771000A7F8505187F8525187F86851C7F86C5153
:10772000D8F800301BB9FEE7FEE7012345E7384BE8
:10773000DFF8F0907822294607F1D400C8E906382E
:10774000C9F8008013F006FDFF237721A7F64870E3
:10775000A7F8543187F8535187F84E5187F8D15024
:1077600004F0ECF8A7F6547002F00CFE294BA7F8D1
:107770008859C7F8783107F5C173C7F87C314FF4E1
:107780000063A7F8803107F5BE73C7F8843907F6A0
:10779000AA13C7F8A4394FF40073A7F8A8391E4BF1
:1077A000C7F88C59C7F8B03B07F6A413C7F890394F
:1077B0001A4BC7F89C59C7F89439194BA7F8A05928
:1077C000C8E90438D9F8003087F8AC5B4345C7F8FE
:1077D000B45BC7F8988927D0FEE700BF18140020D3
:1077E0007410002027A4000860CB01080B00FFFFE5
:1077F0003818002001AA00089B900008A826002045
:107800007937002000F8FF07FDB50008A8360020F2
:10781000A9B500087D8D000859AC0008C7DE000836
:10782000A5A300084C1400202023AA4F4FF4800287
:107830004FF47001A8483B6709F000FE10234FF495
:1078400080224FF47021A4483B6709F0F7FDDFF870
:10785000AC92D4F8783AD3F804805D60B8F1000FA8
:1078600074D1D4F8783ACDF83C800293012384F89F
:107870007C3A94F87C3A5BB14FF4007241469748E9
:1078800013F068FC9648C768002F6CD184F87C8A96
:1078900009F0B0FCEFF3108072B6B9F8027015F081
:1078A000BCF8002F40F0F4804FF4F85014F05CFC6A
:1078B00020B34FF4807014F057FCDFF844A28346E5
:1078C000002800F0A381DAF8003039461B684FF435
:1078D00080701B7813F0200F824B18BF984614F06D
:1078E0002BFC3A460023DAF80000C0E90433836A2F
:1078F00093F8C83013B1414609F0E3FC7A4B18689D
:1079000020B10368022B01D102F090F87749A1F170
:10791000240002F04FF8002800F098817349A1F18B
:10792000240002F047F80746002840F0988170498B
:10793000A1F1240002F03EF80746002887D038461F
:107940006C4902F04DF838466949F3E7D8F804006D
:10795000804516BF43684FF00008C8F8043003683C
:10796000456098477AE74FF400725C4900680FABB6
:10797000B84784F87C8A00288AD15F4B1F68002FA3
:1079800086D0BDF83CA0DFF854B107F58057BAF1B6
:10799000000F3FF47DAF97F88C391BF8011B012BCA
:1079A00010D0022B4DD043B97E2906D1012387F890
:1079B0008C394FF6FF73C7F89C390AF1FF3A1FFA6A
:1079C0008AFAE4E77D291BD07E291DD0D7F89009DB
:1079D0008288002A51D0B7F89C29DFF828C182EAB2
:1079E0000103DBB23CF8133083EA1223A7F89C3979
:1079F00003F05CF8B7F89E390133A7F89E39DCE74D
:107A0000022387F88C39D8E7B7F89E39002BD0D0FD
:107A1000012B14D04FF2B803B7F89C299A420ED12B
:107A20000021D7F890391A68023A1A609A8802320F
:107A30009A80D7F89439D7F898099847B9E706217A
:107A4000F7E7D7F890098288BAB1B7F89C2981F096
:107A50002001DFF8B0C082EA0103DBB23CF813304A
:107A600083EA1223A7F89C3903F020F8B7F89E396F
:107A70000133A7F89E390123C3E703920321D7F806
:107A80009439D7F898099847039A87F88C2994E78E
:107A900084F87D5AEFF3108072B6B9F80210B9B1CC
:107AA000B9F80030013909EB8302D2F80CA0B9F81B
:107AB00004200133B3FBF2F702FB1733A9F80210DD
:107AC000A9F8003014F0A9FFBAF1000F1CD1FEE7AD
:107AD0008A46F7E700D0035064C003509D1B002086
:107AE0000C130020881400204013002030100020C8
:107AF000541000205D7F00084C140020B8140020B2
:107B0000381300209CCE0108584F9AF80C30FA7DAB
:107B1000C3F3800363F34102FA759AF80C3003F063
:107B2000FB038AF80C30FA7DDB0963F30002FA7577
:107B30009AF80C3003F07F038AF80C309AF8013081
:107B4000BB71534613F80C2BBA803B609AF9033093
:107B5000474A7B7513709AF80230464ABB7513701A
:107B6000DAF80430BB62DAF808B003F090FF0023C3
:107B7000834528BF01F1FF3113EB0B03C7E9023145
:107B8000029B03B9FEE73C4B1A789B683A753B6150
:107B9000029B93F8C830002B34D0B36D94F87DBAB3
:107BA00033B1BBF1000F03D15946F26D2F4898470E
:107BB000338F99060FD5FB7D9A070CD53A7D96F841
:107BC00094309A4207D13B69D6F89020934224BF63
:107BD0000133C6F89030BBF1000F0AD1B6F8A430DB
:107BE0002BB1FB7D9B0744BFBB68C6F8B43009F0DE
:107BF000DFFAF36A33B1BBF1000F03D15A461B49D8
:107C00001E489847504608F0C9FE43E64FF40070FE
:107C100014F0AAFA074630B159464FF4007014F038
:107C20008BFA0F225EE64FF4806014F09DFA014655
:107C300030B139464FF4806014F07EFA0E2251E6DE
:107C40004FF4805014F078FA0B224BE60C49A1F166
:107C5000240001F0AFFE00287FF460AEF9E538465D
:107C6000084901F0BDFE384607495AE6A81500202C
:107C70005D1400205C140020A01200205810002089
:107C800054100020517F000830100020A3F5803AE6
:107C9000704700BF174B002B08BF134B9D46FFF7E3
:107CA000F5FF00218B460F461348144A121A13F0B1
:107CB00051FA0E4B002B00D098470D4B002B00D0F3
:107CC00098470020002104000D000D48002802D034
:107CD0000C48AFF300800BF089FC20002900FEF770
:107CE00083FA0CF021FB00BF000008000000000038
:107CF000000000000810002008100020804900202B
:107D00000000000000000000014B1868704700BF31
:107D1000081000204FF0FF30704710B5044600B93E
:107D2000FEE7037F1BB1436998470023237710BD0B
:107D300038B5044600B9FEE7038B428B9A420CD952
:107D40000022013302770383D0E9025398470146AA
:107D50002046A8470123237738BD036A0133036215
:107D6000BDE83840D9E7014B5B691847081000208F
:107D700010B5EFF31184302383F311880348FFF724
:107D8000CCFF84F31188BFF36F8F10BD0C1000205F
:107D9000014B9B6B184700BF0810002010B5EFF394
:107DA0001184302383F311880348FFF7B6FF84F36F
:107DB0001188BFF36F8F10BD301000202DE9F843FC
:107DC000064614460D46FFF7A8FF3369984700277B
:107DD0002D1947EB07032C1A63F10005012C75F1EF
:107DE000000306DA336A304601333362BDE8F843F4
:107DF00093E7D6E902839847A04277EB05031CD2AC
:107E0000F36898473B460246294620460AF0ECFDB7
:107E1000F368914698473B460246294620460AF0B9
:107E2000E3FD4C4683B20022738321463046328301
:107E3000C04701233377BDE8F8833B46F3E710B52D
:107E4000084B5C6804B95860EFF31184302383F366
:107E500011880548FFF7B2FF84F31188BFF36F8FD5
:107E600010BD00BF081000200C10002010B5084BFA
:107E70009C6A04B99862EFF31184302383F311886C
:107E80000448FFF79BFF84F31188BFF36F8F10BD89
:107E9000081000203010002070B5036805460C461D
:107EA00023B9BDE870404B68084818478B6898476D
:107EB0002B6801465A68831A002BB8BF121A236830
:107EC000A8BF0022BDE870400048184758100020A5
:107ED00038B50C461146A2680346944206D00568A0
:107EE000AC420BD10260FFF7D7FFA46038BD9442CB
:107EF0000DD011469268002AF9D1F6E72A460021F2
:107F0000F9E78B68002BF0D09B688B60EDE70029C8
:107F1000F7D1002DE9D0AA681A60E6E770B50668C7
:107F200004460D467EB18B6898477368C01A0028D6
:107F300009DB20462A463146FFF7CAFF3046336840
:107F4000BDE87040184729462046BDE87040A3E7C9
:107F500001490830E2E700BF60CB010801490C305D
:107F6000DCE700BF6CCB010800F01800102805D03A
:107F7000A0F1180358425841C000704704207047D0
:107F800000F007030120984010F0220F09D110F0F3
:107F9000880F08D100F04400003818BF0120C0004D
:107FA0007047042070471020704708B54307024609
:107FB00008D0FFF7D9FF12F0180F0CBF05300630BC
:107FC000C0B208BDFF20FCE7416AD0E90E23994208
:107FD00009D1017F012906D0531E026893420ED3B6
:107FE0004362C3637047016A914207D1027F2AB19D
:107FF00042680133934205D203628363704701896B
:108000000B44EBE701895B1AF4E7037F022B06D0F0
:10801000083350F82330C0E90A3302230377D3E74B
:1080200010B5C38802895C1C944297BF0268062081
:10803000D35C0B709FBFC3880133C380002010BD89
:1080400013B50C460DF10701FFF7EAFF48B99DF89B
:10805000073013B9207002B010BD012B01D123707D
:10806000F9E70620F7E713B50C460DF10701FFF716
:10807000D7FF10B99DF80730237002B010BD10B5BE
:10808000C38802899C1C94420BD80268D418647877
:10809000D35C43EA04230B80C3880233C3800020EF
:1080A00010BD0620FCE770B5C4880389221D9A42E2
:1080B00011D805682A19937856782C5D1B04D2785C
:1080C00043EA0623234343EA02630B60C388043375
:1080D000C380002070BD0620FCE770B5C28803890C
:1080E00002F108049C421CD80568AC18A378667895
:1080F000AA5C1B0443EA06231343E278657943EA4A
:108100000263227942EA0522A579E47942EA05422E
:1081100042EA0462C1E90032C3880833C380002008
:1081200070BD0620FCE7F0B50024C288036807890B
:108130009E182346BF1A9F42C3EBC30E12D0052BD5
:1081400010D016F803C001330CF07F0505FA0EF5C8
:108150001CF0800F44EA0504EDD11A44C2800020CF
:108160000C6000E00620F0BD30B5C4880389A51876
:108170009D42D7BF036806201B190B60DFBFC38871
:10818000D218C280002030BDF7B50E460DF10601B1
:1081900005461446FFF773FF10B1062003B0F0BD8B
:1081A000BDF8067031463A462846FFF7DDFF002845
:1081B000F3D12780F2E71C282ED8DFE800F00F303B
:1081C00011132D1517192D2D2D2D1B1D1F212D2D93
:1081D0002D272D2D2D25232D2D292B0000207047F7
:1081E0000E2070470B2070470C2070470920704705
:1081F0000320704702207047042070471120704709
:1082000012207047132070471420704716207047C3
:10821000172070471820704700F5804070470120F4
:10822000704713B504460DF107018030FFF708FFD2
:1082300060B92368DA6A5AB193F84A209DF80710AA
:1082400061F3000283F84A2002B010BD0620FBE76C
:108250000D20F9E7F7B504460025012700F1800657
:10826000B4F88620B4F888309A4204D10020C4F8CB
:10827000A05003B0F0BD30460DF10701FFF7D0FE6E
:1082800038B99DF807301F2B05D807FA03F31D43B3
:10829000E6E70620EDE70720EBE700F1A4018030D8
:1082A000EDE60C207047002307B580300DF1070183
:1082B0008DF80730FFF7D7FE18B99DF80720024B5D
:1082C0001A7003B05DF804FB804A002007B58030C7
:1082D0000DF10701FFF7C7FE00280CBF0C20062098
:1082E00003B05DF804FB07B580300DF10601FFF720
:1082F000C6FE00280CBF0C20062003B05DF804FB6E
:10830000FEE7FEE70022002373B50446CDE9002313
:10831000FFF729FD6946054604F18000FFF7DDFE01
:1083200080B9DDE90032AB4272F100010CD341F2B9
:1083300070115B1B04EB010662F100026350726076
:1083400002B070BD0620FBE70720F9E7F0B5044650
:108350000C260020013A90420DD370430A180958A8
:108360008B4215BF0023D2E90101C4E90033C4E9FF
:1083700000012046F0BD85186D0806FB05F7CF59B2
:108380009F422CBF2A46681CE5E770B541F255159F
:1083900000F5805696F85211044629440144803075
:1083A000FFF74EFE50B9226896F85231D26A3AB1C0
:1083B0001C44625D034B83F8202170BD0620FCE75E
:1083C0000D20FAE70810002013B504460DF1060150
:1083D0008030FFF754FE60B92368DA6A5AB1BDF8FD
:1083E0000620B3F84010914201D0A3F8402002B01B
:1083F00010BD0620FBE70D20F9E7BFF34F8F0549BD
:10840000054BCA6802F4E0621343CB60BFF34F8FA1
:1084100000BFFDE700ED00E00400FA05FEE704F010
:10842000B9B970B5044601260B4D04B970BD94FA74
:10843000A4F0B0FA80F006FA00F224EA0204C200C6
:10844000AA580F2805EBC001C8BF1038002AECD08D
:108450004968C0B29047E8E72C110020074BD3F8D9
:108460002404D3F8202403F50053104000F05530C5
:1084700020F05020C3F82004D3E700BF00C0035011
:10848000074BD3F82404D3F8202403F500531040FD
:1084900000F0AA3020F0A020C3F82004C1E700BFFC
:1084A00000C0035010B5416C4369A1F11404DA1CFB
:1084B000B2FBF4F203EBC2000330B0FBF4F0B1F511
:1084C000805F00F1010002D1012828BF01200130A6
:1084D00010BDF7B507460E4600257C6CA81964420E
:1084E00080EA06031C4003D02C46204603B0F0BDB2
:1084F000FB6B01225B6901A99847019B0133F4D111
:108500000435EAE72DE9F341154690F842201E466E
:10851000012A14BF042302235D43CF7D2C1D844612
:1085200005F00205BFB915B1012724F0030448681E
:1085300008342044DCF83C30012A5B6927D101A9CA
:10854000984717B1BDF806300193BDF80430336089
:1085500002B0BDE8F08155B124F0030400230D7E84
:1085600001F1200ED8B2854203D80020E2E72F4661
:10857000F4E73EF8330003F10108A04204D901EB0F
:10858000C303D8690834D4E74346241AEAE7012232
:10859000314602B0BDE8F0411847D01E009B424270
:1085A0004241187E824212D11A688A420FD85A6814
:1085B0008A420CD35A6901325A61D3E903028242DA
:1085C00005D2986840F822101A6901321A61012018
:1085D000704700234FF0FF3142689A4202D80023CF
:1085E00003727047026842F83310026802EBC3025C
:1085F00051600133F0E7002370B545689D4211D00A
:108600000468DE0054F83320B2F1FF3F0BD0C2F310
:108610001302914207D14FF0FF3244F83320036830
:1086200033445A6070BD0133E8E710B5032A029C59
:1086300007D1A26A5340626C5242134201D1FFF744
:10864000DAFF012010BD0023F0B545689D4202D13C
:108650004FF0FF300EE00468DE0054F83340671C32
:1086600009D0C4F31307B94205D1240D147003686F
:1086700033445868F0BD0133E8E773B5164600F19E
:1086800008040D46204609680DF10702FFF7DBFFDD
:10869000032E05D16B68834202D12046FFF7ABFF62
:1086A000012002B070BD00BF2DE9F0414668002EE8
:1086B0003AD0056898464FF0000CAE4655F83C405D
:1086C000C4F31307013401D0B94222D00CF1010CDC
:1086D000B4450EF1080EF1D100273C4603E0B44248
:1086E00007F108071DD055F8343001340133F6D1B5
:1086F0006FEA01316FEA1131E9510168CB59C3F3D7
:10870000130343EA0853CB5103683B445A60BDE866
:10871000F08141EA0851CEF80010036803EBCC0366
:10872000F4E7B8F1030F03D101230372BDE8F08130
:1087300000231C4603E0B44203F10803F4D055F8CB
:1087400034700134C7F3075CBCF1030FF3D16FF34E
:1087500013073943E9500468E158C1F3130141EAB2
:108760000851E15001680B44D0E708B508301346C2
:10877000D1E90012FFF798FF012008BD4FF48032C5
:10878000064B00209A6641F6713203F51C33DA631A
:10879000012203F50053DA60704700BF00900050DB
:1087A0000B4B01219B6EDB035EBF4FF48032094B04
:1087B0009A6641F67132084BDA63084AD1600022AA
:1087C000DA634FF48032A3F518339A66704700BF1E
:1087D0000080005000900050000003500020035023
:1087E000704737B5054601F10C04436901A9012220
:1087F00020469847BDF80430012200936946204680
:10880000AB69984703B030BD202A0B681EBF4FF0FC
:10881000FF3191408B43590801F055315B1A03F049
:1088200033319B0803F033330B44017803EB13130C
:108830000A444FF0013103F00F334B43A2EB1362B4
:108840000270704737B5044600251B22011D0DF14B
:1088500007008DF80750FFF7D7FF63689DF80720E2
:10886000B2EBD36F03D123F0784003B030BD1B22AD
:1088700004F108018DF80750FFF7C6FFA0689DF8C6
:108880000730B3EBD06F0ABFC0434FF0FF3020F08A
:108890007840EAE72DE9F0430646994689B0036936
:1088A00008460F46904698470446002867D1D9F8F5
:1088B00004305B0A012B22464FEA530304F1010402
:1088C000F8D899F8035099F802302D03DB0203F42D
:1088D000006305F480551D43B9F800304FF00009DE
:1088E000C3F30A0352032B4492B29D18294B0DF196
:1088F00007001B2228F0784402A9039302948DF804
:108900000790FFF781FF9DF807306FEA054544EABD
:10891000C36404946FEA08041B2224F0784402A97B
:1089200002948DF80790FFF76FFF9DF807306FEA0C
:10893000154544EAC3644FF0FF33012205940693C2
:1089400007A9B369079507F110009847012204466B
:10895000B36905A907F1080098470122484518BFE7
:108960000446B36904A9381D98470122484518BF39
:108970000446B369384603A9984728B104463946E6
:108980003046FFF72EFF01E0002CF8D1204609B059
:10899000BDE8F08301009AB2034B5A6812B19A6A9B
:1089A000002AFAD1704700BF004006501F4C07B59F
:1089B00094F8243203B9FEE70023694604F50A70EF
:1089C000CDE9003309F094F9F0B9194AD2F84031F1
:1089D000D2F840211F2B4FF0010310D9203A9340C9
:1089E000019A1A43019294F85C321BB1694611480E
:1089F00009F0B8F9104B114A1A60FFF7FEFC9340DA
:108A0000009A1A430092EEE72D28F3D1084AD2F8D3
:108A10004031D2F840211F2B4FF0010385BF203A8F
:108A200093409340019398BF0093DCE70810002027
:108A30000080004430120020000000200B020FF0E4
:108A4000F8B5EFF31187302383F311881A4D1B4ECD
:108A500013F08AFAA869D6F890422B6CDB0703D58D
:108A600013F082FAA869013487F31188BFF36F8F7E
:108A7000134B8342134BA3411DD3D6F89422D2B19A
:108A80004FF47A73A0FB030103FB0411531E13423E
:108A90000DD1B2FA82F2C2F11F04531CD243E0405E
:108AA00001FA03F3184321FA02F21043F8BD002340
:108AB00009F09AFFFAE7FEE700800A50081000204C
:108AC000EFA7C64B3789410007B50A4600B9FEE754
:108AD000037F03B1FEE7074B019000934168012338
:108AE0004FF0FF3012F00FFC00B1FEE703B05DF86D
:108AF00004FB00BFD9CA01084FF0FF3012F093BB4E
:108B000000B9FEE741684FF0FF3012F03ABB2DE9A3
:108B1000F341044601A98030FFF705FB78BB03460B
:108B200006460125DDF804E0164991F80880B8F101
:108B3000000F19D00A68964516D1A3F12002C3F19F
:108B4000200625FA06F605FA02F2324305FA03FC7E
:108B5000D4E9307627EA0C0726EA0206C4E9307623
:108B6000BEF1000F08D1464601331F2B01F10C0165
:108B7000DBD1002E08BF072002B0BDE8F08106203F
:108B8000FAE700BF78CB01082DE9F341044601A9BB
:108B90008030FFF7C8FAB0BB034605464FF0010C22
:108BA000DDF804E0194991F80880B8F1000F1FD0F2
:108BB0000A6896451CD1D4E93076A3F12002C3F1AE
:108BC00020052CFA05F50CFA02F22A430CFA03F5FB
:108BD0002F431643C4E93076D4E92E7627EA0507F9
:108BE00026EA0206C4E92E76BEF1000F08D14546FA
:108BF00001331F2B01F10C01D5D1002D08BF072037
:108C000002B0BDE8F0810620FAE700BF78CB01088A
:108C1000002373B500F18006044601A930468DF8A3
:108C20000330FFF740FA054618B10625284602B082
:108C300070BDB4F88620B4F888309A4229D0304606
:108C40000DF10301FFF7FCF90028EED122689DF831
:108C50000310D36AE9B10BB90D25E7E7D2F89010FC
:108C6000019B994238BFC2F89030128F9206DDD531
:108C7000EFF31181302282F31188104AD2F89C025E
:108C8000984238BFC2F89C3281F31188BFF36F8FCE
:108C9000CCE72368DA6A002ADED0019AC3F8902074
:108CA0001B8F9B06C2D5EFF31183302181F311880E
:108CB0000249C1F89C2283F31188E7E708100020DD
:108CC00037B505460DF106018030FFF7D8F90446A7
:108CD00098B92B68DB6A93B1BDF8060008F07CF800
:108CE00083B2092B0DD8084B03EB800080F8DA42E1
:108CF000A0F8D842204603B030BD0624FAE70D2480
:108D0000F8E70A24F6E700BF081000201FB500238B
:108D10000C46006801A98DF80C3008F094FA024660
:108D200038B99DF80C30012B06D0022B09D003B9BD
:108D30002072104604B010BD2372BDF804302380A9
:108D4000F7E7237201AB03CB20606160F1E710B558
:108D5000044644EA010313F00303084609D1934291
:108D600001D1002010BD54F8231040F82310013326
:108D7000F5E72146920012F0C7F9F2E770B50C460C
:108D80000646A0B199B10B4D95F800330BB108F030
:108D900031FAD5F8083353B122463146D5F80403E9
:108DA000984708B1072802D1012385F800332046EF
:108DB00070BD00BF0810002070B504460E46E5885F
:108DC000134682880068AA4234BFA91A00211044C1
:108DD000324611F0D7FE002800DAFEE7A388E288C9
:108DE000184480B2904228BF2368A08022BF9B18FD
:108DF000002203F8012C204670BD0EB417B50446BE
:108E000005AA52F8041B0192FFF7D6FF204603B0D3
:108E1000BDE8104003B070470FB44FF41603F0B52F
:108E20000024ADB032AD55F8047B4322194906AE9B
:108E300004A80593039504968DF81840FFF7DDFF0D
:108E40002346154A12F8011B09B99BB202E001330F
:108E50000E2BF7D1114A12491344009304A8A2F132
:108E600009030E22FFF7C9FF2A46394604A8FFF777
:108E7000A3FF0C4A0C4904A8FFF7BFFF334610219B
:108E80000120094A07F07EFE2DB0BDE8F04004B095
:108E9000704700BFCF010208ECCC0108F5CC0108F7
:108EA000D501020861070208810502082DE9F04199
:108EB00083888846232B17469EB06CD90668346891
:108EC00024F04003802B02D0B4F5807F63D10125CC
:108ED0002022002116A812F03DF93C4BE408DFF8EF
:108EE000F8C044F000541593331D0C930D950CAB52
:108EF0000E9403AC93E8070006AB84E80700CDF8B6
:108F00003C800FAA1095CDF844C007CA83E807003B
:108F1000129712AA1395CDF850C009AD07CA85E87B
:108F20000700169A002A37D11694169A002A3ED1C5
:108F30001693294615A813F0F2FD1D9B042B12D899
:108F40001EAA991C02EB81003268D20840F8202C3E
:108F50005A1C052A1D9206D01EAA02EB830310227A
:108F60001D9143F8142C4FF48062194B9A66BFF39D
:108F70004F8FBFF36F8F15A813F0B1FD4FF09843DB
:108F80005A6CD202FCD54FF480615B6D114A13F428
:108F9000702F916616D0FEE7169A0292029A5268D6
:108FA000012A029A01D15460BFE75268F5E7169A88
:108FB0000192019A5268012A019A01D15360B8E7DF
:108FC0005268F5E71EB0BDE8F08100BF0001000463
:108FD0000090005000A000501000002010B5436821
:108FE00004464BB1007807F057FF20B9A37C022B51
:108FF00001D00223A37410BD0D20FCE7002313B59C
:10900000044601A980300193FFF78DF8C0B92368A9
:109010009DF80420D96AB1B183F828202368DA6A60
:109020007AB104F5805292F85221144441F24E1262
:10903000A25C32B103F1280002B0BDE81040CDE7D8
:10904000062002B010BD0D20FBE710B58378044662
:1090500003F0FB03032B1FD10388DB0612D5042387
:10906000A370A06908F0D9FC0D2809D1A269536941
:109070003BB100235361A2691361A06908F0CDFCE4
:1090800050B1FEE78369987907F006FF00B1FEE76B
:10909000A378042BE5D0E2E710BD07F0E5BF012B74
:1090A00008B50DD0022B15D0D3B98A4237BF43681B
:1090B000511A5B1A01683CBF521AD11888B208BD18
:1090C0008A4289BF4368891A9B1A026884BF891A39
:1090D000C918F3E7C721034B034A04480AF054FABE
:1090E0000021EBE7DE010208E40102083E0202086B
:1090F0000368006D93F8281007F042BD044B006D23
:1091000093F82013490001F0FE0107F039BD00BFBC
:10911000081000203221006D07F032BDAF21006D34
:1091200007F02EBDF8B505460E460024012707FAC4
:1091300004F3334204D10134202CF8D10020F8BDCF
:10914000286DE1B207F01CFD0028F4D0F7E7D0F855
:10915000A010E7E70049E5E700F8FF070049E1E76D
:1091600000F8FF070368D96A59B141F2541200F5BB
:10917000805393F8523103449956013118BF0121AD
:109180004900006D07F0FCBC0121006D07F0F8BC40
:109190000021006D07F0F4BC0421006D07F0F0BC65
:1091A00090F8C810006D07F0EBBC10B5044607F04E
:1091B000D9FEC1B2206DBDE8104007F0E1BC9C2192
:1091C000006D07F0DDBC0221006D07F0D9BC30B5A1
:1091D000154A87B002AC516805461068224604ABB8
:1091E00003C3124B124913F801098B4202F8010B19
:1091F000F9D10822204604A911F076FF60B90D4B81
:109200009A6CDB6CCDE900236A46234613F8011DF6
:109210009A4204F8011BF9D10822286D0DEB0201D6
:1092200007F03CFC07B030BDA90202080900E00FBE
:109230000100E00F0080E00F01680822006D42315C
:1092400007F02CBC0368006DD96A003918BF0121F2
:1092500007F022BC41F24E1200F5805393F85231D0
:109260000344995C006D07F017BC41F2551200F5FC
:10927000805393F852310344995C006D07F00CBCA5
:10928000002337B505460DF1070180308DF8073012
:10929000FEF7C6FE0446A0B99DF8073023B1013B96
:1092A000012B09D9072404E02B68DB6A5BB107F0C6
:1092B000B9FA204603B030BD2B68DB6A1BB1012030
:1092C000F5E70624F5E70D24F3E773B505460DF140
:1092D00006018030FEF7D3FE044658B92D68EB6ACC
:1092E00053B1BDF80660304607F0E8FA6E852046B7
:1092F00002B070BD0624FAE70D24F8E7002337B565
:1093000004460DF1070180308DF80730FEF798FE16
:10931000B0B923689DF80750DA6A22B16DB103F144
:109320002800FFF75BFE04F5805393F852311C448C
:1093300041F24E13E55403B030BD07F0EBFAF2E70B
:109340000620F8E713B504460DF106018030FEF75C
:1093500096FE48B92368DB6A4BB1BDF8060002B03F
:10936000BDE8104007F052BD062002B010BD0D2030
:10937000FBE737B503680446DB6A1BB328220021EC
:10938000114811F0E7FE04F18005B4F88830B4F814
:1093900086209B1A9BB2012B01D800200EE02846A4
:1093A0000DF10601FEF76BFE50B92368DB6A4BB185
:1093B000BDF8060007F02AFD0028E6D003B030BD56
:1093C0000620FBE70D20F9E7E012002037B505463F
:1093D0000DF106018030FEF752FE044668B92B6895
:1093E000DA6A72B1BDF806100246D987064BD3F887
:1093F000240311F070FF08B1FEE70624204603B0F5
:1094000030BD0D24FAE700BF081000202DE9F04F11
:10941000DFF8F8829F4AB8F828339F48B3F5406FC9
:109420004FEA132138BF02EB8102C5B0FFF7F4FC0D
:10943000B8F82813994B0A0A03EB8203D3F8A03239
:10944000CAB203EB82029648FFF7E6FC0123B8F8A4
:109450002823120A934040F2A172134200F08C803C
:10946000904C9148D4E90D325F0748BF0025D4E9FC
:10947000121B4EBF2F46276D8B46D4F83CA05DBF14
:109480008A4D9246DFF88892DFF8889213F0080F31
:10949000874B884918BF1946EE1B1FBF642273080B
:1094A00002FB0B33B3FBF6F31ABF9BB20393039695
:1094B0003B464A46CDE9005AB6B2FFF7ADFC4B46F3
:1094C000039A7D4800961FFA8BF1FFF7A5FC5545DE
:1094D00001D3574503D949467848FFF79DFC626E92
:1094E000E36D1343226E13434AD07548FFF794FC93
:1094F00000264FF001096B4F0025FA6D09FA05F3BC
:10950000134203D06F487119FFF786FC0135202DF7
:10951000F3D12036602E07F10407EDD140F6052285
:10952000B8F8283393420ED8B3F5206F2CD840F208
:109530000252934236D040F2017293423AD040F246
:10954000015293422AD0002504AE4FF480720021CC
:10955000304611F0FFFD2F46DFF8BCA1DFF8448153
:10956000DFF8B8919AF80030002B40F0F3801DB17D
:1095700031465548FFF750FC002045B0BDE8F08F5C
:109580005248FFF749FCC9E7A3F60223032B17D87B
:10959000DFE813F02D005300C600DE004C48FFF753
:1095A0003BFCD0E74B48FFF737FC216C4A48FFF7FC
:1095B00033FCC8E74948D4E92512FFF72DFCC2E780
:1095C0004748FFF729FC94F86C309E0702D54548C0
:1095D000FFF722FC94F86F305D0602D54248FFF792
:1095E0001BFC94F96F30002BADDA4048D7E74048B8
:1095F000FFF712FC94F86830980703D0216C3648C6
:10960000FFF70AFC94F96830002B03DA616F3948E0
:10961000FFF702FC00250127374EA26E07FA05F37B
:10962000134206D056F825100B7813B13348FFF7D4
:10963000F3FB0135082DF0D185E73148FFF7ECFB4E
:10964000216C2548FFF7E8FB94F86930590702D5EB
:109650002C48FFF7E1FB94F96930002B03DA616FC6
:109660002448FFF7D9FB0825234EA36EEB40DA0709
:1096700006D556F825100B7813B12048FFF7CCFB20
:109680000135102DF1D194F86830002B7FF45BAFD9
:109690001D4884E704CD0108D102020860CB01080F
:1096A000E702020880490020070302080810002092
:1096B000BF020208C602020838030208710302084A
:1096C0008F030208BE03020881050208C2030208D4
:1096D000D703020814040208440402085E040208C6
:1096E0007904020891040208CB040208FE0402086F
:1096F0003A0502085F05020830CE01087C05020821
:10970000840502089B050208E105020808100020F4
:10971000BA020208B202020834CD0108CE020208E1
:109720001E48FFF779FB216C1D48FFF775FB1025DC
:109730001C4EA36EEB40DB0706D556F825100B78C0
:1097400013B11948FFF768FB01351A2DF1D1FAE67C
:10975000164828E7164B07F00302032A18BF4B46AA
:10976000019358F8043B4FF480710093114A53461B
:10977000701911F08FF91AF8013B002BFBD17A1CFC
:1097800012F00304D7B203D02844C4B22546E9E658
:1097900031460948FFF740FBF8E700BF1106020811
:1097A0004404020830CE01087C0502082A0602089B
:1097B000610702084B060208810502082DE9F74FF0
:1097C0008A464FF480314FEA820B324A324D91661D
:1097D000EA69814602EA010341F6713201210093F0
:1097E000EA632E4A0746D160D8465246B8F1000FC8
:1097F00001D140462CE007F500546FF30C046F6173
:10980000E41BE969444528BF444649073BD4164652
:1098100056F8041B2244A961964210D1042200216B
:1098200021202A6113F098F990B90146212013F004
:1098300093F968B932462744A8EB0408D6E7082113
:109840000846019213F088F9019AC0B104232B61F4
:109850000122134BDA60009B13B100220E4BDA6336
:10986000431C13D0A0B95A465146484611F03CFC5F
:10987000002814BF3D20002003B0BDE8F08F56F84B
:10988000041BA961C8E74FF0FF30E1E76E20F3E762
:109890007120F1E7009000500000035000100350C9
:1098A000002003504FF4803270B51D4B1D4D9A6659
:1098B000EE6941F6713316400122EB631A4B002129
:1098C000DA600223686104462B61212013F044F919
:1098D000014618B9212013F03FF901460122134B2C
:1098E000DA600EB10023EB634B1C14D0A9B9104B06
:1098F0009A6801230A3202F01F02934023F0030307
:1099000023449C4201D1002070BD54F8042B013245
:10991000F7D03E20F8E76E20F6E77120F4E700BFAD
:10992000009000500000035000100350002003502E
:109930000080E00F1FB54FF000639B6A03F178428F
:10994000B2F5C04F04D340F2011005B05DF804FB3E
:109950001B6B03F17843B3F5C04FF4D201238DF8AC
:109960000430002301A8CDE9023306F0FFFF039B7A
:10997000DB03E8D5029B1A0EE5D0012A03D1C3F31D
:1099800007430A2BDFD94FF000639B6A1B6B1B6CEC
:109990009847DAE710B5044B0A46D3F8383300216C
:1099A0000446984710BD00BF60CB01080023036048
:1099B00043607047094B091A891030B55943024674
:1099C000002324258B4205FB032004D0046A04B144
:1099D00030BD0133F6E70020FAE700BF398EE338E7
:1099E00070B50D460668EFF31182302181F31188BE
:1099F0000021046A016282F31188BFF36F8F002C8B
:109A000000DC70BD3046013CA847F8E7022012F0A8
:109A1000ABBB38B5056804463DB1284607F076FA79
:109A2000284612F0B5FA0023236038BD034670B50E
:109A3000F8B10668022E1CD10E4C5A7904F54E700E
:109A400000EB82009A798AB11D79FFF7E2FF94F862
:109A500018316DB26BB194F88A302846022B18BFCA
:109A600084F88A60BDE8704006F01ABFBDE8704017
:109A7000CFE770BD0810002038B51446002A39D051
:109A8000D168936801391C4D9942D5F824034FF0F1
:109A9000FF3118BF002111F0B7FB10F5007F0CD18A
:109AA00080232374A368E26801339A42A3600FD92C
:109AB0002046BDE8384006F013BF002894F9103066
:109AC000B8BF033040F387008342B8BF2074E9E792
:109AD00094F91030237102232360A37913B1204637
:109AE000FFF7A4FFD5F824030022BDE83840802109
:109AF00011F054BB38BD00BF0810002008B5074B5B
:109B0000D3F8240311F08DFB30B1054BB3FBF0F01B
:109B100083B20BB1184608BD0120FCE708100020F5
:109B200040420F001FB5FF238DF804300023CDE91C
:109B30000233064B014601AAD3F8240311F000FCBE
:109B4000003818BF012005B05DF804FB08100020A4
:109B5000F8B506462C4D33680C46D5F824031BB3E4
:109B6000972111F0A8FB024600B1FEE73168D5F855
:109B700024030AF0BBFC00B1FEE73168D5F82403EA
:109B800011F032FB3179814200D0FEE7D5F8240391
:109B90000AF072FD00B1FEE70122D5F82403114658
:109BA00011F05CFB20B1FEE70AF0FAFC00B1FEE721
:109BB0000322D5F82403114611F040FB7F2C20D05E
:109BC000D5F8240311F01CFB042814D104EB840401
:109BD0006400D5F824730A21384611F0ABFB40F637
:109BE000E441384611F0A8FB2146D5F8240309F0DA
:109BF00021FC30B1FEE7D5F8240309F0E1FB04466F
:109C0000E7E7C5F83C63F8BD0810002038B5044606
:109C1000164D12F0BDFA237D95F844239A4223D8BD
:109C200095F845239A421FD3D5F83C3305F550707B
:109C3000834202D07F21FFF78BFF8022D5F82403D7
:109C4000114611F0ABFA10B1012000230AE0207D8B
:109C5000FFF768FF0028F7D1204606F041FE0028F4
:109C6000F2D10123236038BD2120EEE70810002047
:109C700000232DE9F74F04460DF1070180308DF8E0
:109C80000730FEF7CDF9054600287AD19DF8073058
:109C900013B1022B04D00C25284603B0BDE8F08F89
:109CA0002768FB6A002BF7D041F2541104F580536A
:109CB00093F8522122445356013301D00D25EBE78E
:109CC000D4F8A030002B5ED0581E18425BD1B3FAF6
:109CD00083F3C3F11F065654FB6A002BEED097F8AE
:109CE0003A30002BEAD0033B042BE7D93B8F9B078C
:109CF000D1D5DFF8A0A0DAF83893B9F1000F3CD144
:109D00004FF47A73B4F8A480182003FB08F806F027
:109D100065FB4FF0800B86820126C0F800908671AB
:109D200080F804B080F80590C0F808900446FFF76A
:109D3000E5FEB8EBC00F4FEAC00328BFB8FBF3F64F
:109D4000204684F810B0E660FFF760FF58B9CAF803
:109D5000384397F83A30052B1CBF052387F83A3073
:109D60000A4B7B6398E7DAF83833A34205D02046E4
:109D700007F0CCF8204612F00BF90548FFF749FE32
:109D8000E7E7062588E7072586E700BF31B2000828
:109D9000401300200810002008B5054B00EB8000A0
:109DA0004100D3F8240309F045FB00B1FEE708BDEC
:109DB0000810002038B50F4B0C4693F8442382421C
:109DC00015D893F84523824211D303F55075D3F883
:109DD0003C33AB4204D10846FFF7DEFF002038BD1C
:109DE00007F08CF821462846FFF7B2FEF6E7072079
:109DF000F5E700BF08100020002313B580300DF1F7
:109E000007018DF80730FEF72EF9044640B99DF89A
:109E10000720054B83F8482307F01EF8FFF7BCFF27
:109E2000204602B010BD00BF0810002013B500F19D
:109E3000800420460DF10701FEF7F2F818B1062460
:109E4000204602B010BD20460DF10601FEF70BF9C9
:109E500004460028F3D19DF80720A2F10B030F2B35
:109E60000AD8064B13449DF8062083F83E2306F0DB
:109E7000F3FFFFF791FFE3E70724E1E70810002075
:109E800008B5302383F311884FF000534FF20F02CF
:109E900018805A80BFF35F8FFEF7AFFA2DE9F041CB
:109EA0006D4A6E4B55686E4C5D65516A99656D499A
:109EB000D1F80002D865D1F804021866D1F808126A
:109EC000586B5966916A10F0040F9966D16A4FF089
:109ED0000000D966116B1967516B5967D26BD86452
:109EE0009A67D3E90E1218BF11465F4A91421A656C
:109EF0005DD301F12000A04259D88869C5F3080557
:109F00001864CE69062D5E6455D1584DA84252D3CF
:109F1000574DA8424FD205884DF6426085424AD13E
:109F20001868C3F894005868C3F8980040F20170AC
:109F3000A242154604D22E680432B6F1CD3FF7D0C6
:109F40000022C3E91F22C3E92122C3E92322641BA3
:109F5000DFF818C1424DDFF818E19C648D422DD81E
:109F6000D3E91FC7D3E92165D3E923414FF0000EA0
:109F7000013AD2B2FF2A3BD1BEF1000F05D0C3E9AE
:109F80001FC7C3E92165C3E92341B3F85430C3F3C4
:109F900008030C2B3AD8022B53D9DA1E092A50D8C1
:109FA000DFE802F030563F424F4F4F4F4F4C0021F9
:109FB000C3E910112C494FF42060B9E755F8044D5E
:109FC0006445CBD37445C9D2E607C7D50026294FCF
:109FD00057F8048FA045C1D00136062EF8D12AB11A
:109FE000013AD2B203EB8206F467B7E70522F9E73C
:109FF000E0464FF0010EBC4637462E4625460C463D
:10A000004146B5E740F60120BDE8F0813A2B18D172
:10A01000194B9B6913F0020F40F2025318BF184608
:10A02000F2E740F60320EFE740F6042240F2017326
:10A03000B0F5206F0CBF10461846E5E740F6052046
:10A04000E2E740F60722013B5A2B98BF1046DBE7B8
:10A0500040F60220D8E700BF00ED00E08049002074
:10A060000810002000E100E008000020E061000886
:10A0700040CB0108F84900200040005B084B03F585
:10A080005772D2E8AF2FD20707D493F85C2322B9D6
:10A09000C3F86023012283F85C230248704700BFA5
:10A0A00008100020681300201022002111F052B87F
:10A0B0002DE9F04F00F1800493B006460DF109013F
:10A0C0002046FDF7ADFF20B10625284613B0BDE8B8
:10A0D000F08F9DF80930082B01D00725F5E72046C1
:10A0E00002A9FDF79DFF0028EED120460DF10A02DE
:10A0F00005A9FEF749F80028E6D1BDF80A30102B73
:10A10000EBD120460DF10A0204A9FEF73DF8002824
:10A11000DAD1BDF80A30102BDFD120460DF10A024A
:10A1200003A9FEF731F805460028CDD1BDF80A3065
:10A13000102BD2D1DDE9034B059BD6F8009006AE7B
:10A1400030460AAF01939DF808A00DF13808FFF7DB
:10A15000ABFF3846FFF7A8FF4046FFF7A5FFD9F849
:10A160002C20002A43D0B446019B03F1100E624616
:10A1700018685968083303C273459446F7D15B46A3
:10A18000BC460BF1100E624618685968083303C2CA
:10A1900073459446F7D12346444603F1100C2246FA
:10A1A00018685968083303C263451446F7D196E826
:10A1B0000F0009F1600489F894A084E80F0097E883
:10A1C0000F0009F1700484E80F0098E80F0009F10E
:10A1D000800484E80F00B9F838309B067FF575AF2E
:10A1E00043463A463146504606F02CFB6DE70D25B6
:10A1F0006BE770B5134D05F55973D3E8AF4F14F005
:10A20000010416D195F864339BB9C5F8684305F588
:10A210005B7630191034FFF747FFA02CF9D10B22E1
:10A22000094B013A194603F1100304D1012385F8C3
:10A230006433064870BDD5F8680343F8100CC5F8C0
:10A240006813EEE70810002074130020701300203C
:10A250002DE9F34100F1800420460DF10201FDF7E4
:10A260000EFF20B10625284602B0BDE8F081082285
:10A27000204601A9FDF778FF0028F3D18DF80100F1
:10A280000DF101012046FDF7CBFE05460028E9D17E
:10A290009DF80130DDF8048003F00106C3F34000AF
:10A2A000314646EA4006C3F3800046EA800603F0E2
:10A2B00008000643BDF80270C3F3C00206F00F06A3
:10A2C000B8F1000F44D019B913F0060F00D1E2B174
:10A2D000FFF7D4FE0468002C35D1FFF78AFF04682D
:10A2E000002C37D0236803602046FFF7DDFEFFF720
:10A2F000C5FE0368236004602671E780D8F800304B
:10A30000A360D8F80430E360ADE7FFF7B7FE02685A
:10A310002B4614460CB91725A5E7E188B94202D0AF
:10A3200023462468F6E743B90AB113680360FFF7D0
:10A3300060FF03682360046095E71A68002AF6D07E
:10A3400012681A60F3E7E388BB42D5D02468C2E7FD
:10A35000072588E7032586E7094AB2F80C3403B9D4
:10A36000FEE748F24E30D2F81034A3FB003010EB79
:10A37000530044BF20F000400130C2F81004704781
:10A3800008100020436853B9054B5A6D12B958653F
:10A3900040607047526842605A6D5060586570471F
:10A3A0000810002000F58052D2F87C2100F58C5373
:10A3B00002339A4203D100F5DD501030E2E77047D6
:10A3C0002DE9F041936805460C46164698473246FB
:10A3D000074621462846FDF77BFD286800220346F4
:10A3E0006BB16168D3F804E0A1EB070CAEEB070892
:10A3F00098EA0C0F14D4A1EB0E01002908DA52B927
:10A40000A0602C6031462846BDE8F041FDF744BD10
:10A410001A469B68E4E79368A3609460BDE8F08106
:10A42000BCF1000FEAE7084B596E1A6F8A4208BF69
:10A43000996E02F1804204BF0131996603491A679F
:10A44000A1F11400024ABBE708100020741000209C
:10A4500060CB01084160024A01460248B0E700BFF4
:10A460006CCB0108641000200146024A0248FDF747
:10A470002FBD00BF6CCB010864100020002337B54E
:10A4800005460DF1070180308DF80730FDF7D8FD46
:10A490000446C8B99DF807302D68C3B905F1BC0062
:10A4A000FFF7E2FF05F19800FFF7DEFF06F032FA52
:10A4B00040B9012011F058FE20B195F83A300BB1A7
:10A4C00085F83A400023EB62204603B030BD95F892
:10A4D0003A3063B9012011F047FE06F01BFA40B98B
:10A4E00095F83A30012B02D0012385F83A30014B20
:10A4F000E9E7FEE7E1B7000800F44052B2F5005F7B
:10A50000034622D148F2400220F44E5020F03F0092
:10A5100090421ED010D8B0F5446F1AD007D8B0F5CD
:10A52000046F18BF002814BF012000207047B0F549
:10A53000004018BF012070474CF6404203F44C43E2
:10A54000B3F5404F18BF9042EDE700F44063181E8A
:10A55000EFE70020704700F44053B3F5005F04D1EB
:10A5600000F44C43B3F54C4F08D0B0F5804F05D301
:10A57000C0F3801080F00100C0B270470020704727
:10A5800010B58388032B12D9006806F051FE80F4C1
:10A5900080720446C2F30021FFF7AEFF48B98A1C5F
:10A5A000C4F38123022B06D0032B16D02BB1FF203E
:10A5B00012E00A1DF4E70232D2B22046FFF7CBFFC9
:10A5C000C4F3813402EB4002022CD0B207D0032C3A
:10A5D00008D0002C18BFFF2010BD0832ECE7023075
:10A5E000C0B2F9E70830FBE710B583880446022BB8
:10A5F00007D9006806F05FFE18B12046BDE810409C
:10A60000BEE7FF2010BD70B50546FFF7B9FFFF2874
:10A61000044611D02E68304606F04DFE60B1A98880
:10A620008C420BDA305DFDF7C0FCFF2808D00444F3
:10A63000E4B2A142B8BFFF24204670BDFF24FBE76F
:10A640000446F9E738B505460C46FFF7CDFFFF286D
:10A6500017BF2B6806201B5C00201CBF03F00703FC
:10A66000237038BD38B505460C46FFF7BDFFFF28FF
:10A6700017BF2B6806201B5C00201CBF03F01803CB
:10A68000237038BD38B505460C46FFF7ADFFFF28EF
:10A690001FBF431C2A68DBB2D3581ABF00202360B7
:10A6A000062038BD38B505460C46FFF79DFFFF284C
:10A6B00000D1FEE72A68431CD9B2545452FA83F3FE
:10A6C000220A5A70220C240E9A70DC702B7F43F001
:10A6D00001032B7738BD70B506460D46FFF784FFA2
:10A6E000FF28044609D03268105CFDF73DFC224487
:10A6F0000244002053792B7070BD0620FCE770B532
:10A7000006460D46FFF770FFFF28044600D1FEE71E
:10A710003268105CFDF728FC22440244557170BD7C
:10A7200010B50446FFF760FFFF2806D02368185CC9
:10A73000FDF726FC0230C0B210BD0220FCE7F8B5E0
:10A740000646FFF760FFFF28044632D037683846D8
:10A7500006F06EFD830505461CD53046FFF7E0FF89
:10A76000B188A21C93B210FA82F28A4207EB040667
:10A7700020DC3A5D02F07F0213449CB210FA83F3AE
:10A78000994217DB328802F4FF42B2F57E5F01D0B6
:10A790009942E6DC3B7803F00703032B06D105F46E
:10A7A0004055B5F5005F1CBF0134A4B2FE2C01D8A2
:10A7B000E0B2F8BDFF20FCE710B50446FFF7BFFF8D
:10A7C000FF2816BF23680020C01810BD10B504462E
:10A7D000FFF7F2FF2368C01AC0B210BD70B505467E
:10A7E0008688FFF7F3FF04462846FFF799FF0444E5
:10A7F000301B80B270BD10B50446006806F018FD2D
:10A80000830503D52046BDE81040FCE6FF2010BDBF
:10A8100001F1080313F8012D8B4200F8012BF9D147
:10A82000704730B585B00546082201A98030FDF794
:10A830009BFC0446E8B92B68DA6AF2B1019902ADD3
:10A840000A682846C3F842204A68C3F84620FFF742
:10A85000DFFF07230A4AE95C013B02F8011BFAD239
:10A86000084B00222946D3F8240310F018FD08B144
:10A87000FEE70624204605B030BD0D24FAE700BFF0
:10A880001C140020081000201FB5002304460822D5
:10A8900001A980300193FDF767FC58B92368DB6A92
:10A8A00053B102A80199FFF7B3FF02A806F066FAB8
:10A8B00004B010BD0620FBE70D20F9E730B50368B2
:10A8C0000446DB6A85B033B328220021134810F018
:10A8D00041FC04F18005B4F88830B4F886209B1A56
:10A8E0009BB2072B01D8002011E00822284601A9BD
:10A8F000FDF73AFC68B92368DB6A63B102A80199E5
:10A90000FFF786FF02A806F039FA0028E3D005B069
:10A9100030BD0620FBE70D20F9E700BF241400201E
:10A9200030B585B00546082201A98030FDF71CFC32
:10A930000446C0B92B68DB6ABBB1019902A8FFF7D6
:10A9400067FF02A806F0F7F983B2092B8FBF0A242C
:10A95000074B03EB800080F81E4498BFA0F81C440E
:10A96000204605B030BD0624FAE70D24F8E700BF05
:10A970000810002038B54FF6FE7300250446C3804A
:10A980000381438A458003F0FE0343F4FE4343F012
:10A99000010343820571C0F80A50C0F80E504561AA
:10A9A0002830FFF781FB04F13800FFF77DFB04F14D
:10A9B0004800FFF779FB04F16000A565A4F85C503E
:10A9C000FFF752FDC4E91D55A4F87050A4F86C506F
:10A9D00084F86E50E56704F18400BDE8384043E533
:10A9E00082698378516909B912692AB1072B01D0AC
:10A9F00007238370FEF729BB032BFBD00323F8E763
:10AA000010B5274C94F88A30033B042B46D8DFE876
:10AA100003F00308191503002248BDE81040FEF7B3
:10AA200014BBD4F8A030987906F036FAD4F8A00018
:10AA30000E22BDE81040002106F043BC1948BDE8D5
:10AA40001040CDE7B4F888309B0700D5FEE706F04C
:10AA500089FA7F2807D094F99B307F2B01D0984248
:10AA600001DD84F89B00FDF77EF9D4F89C30C01A14
:10AA7000002806DAD4F8EC100B488031BDE810400D
:10AA8000E8E494F88A3094F99B00022B1CBF02235F
:10AA900084F88A30BDE8104005F002BF10BD00BF49
:10AAA0000810002090100020F0100020838843B18F
:10AAB00003685A1C026019708388013B8380002060
:10AAC00070470320704738B57E2905460C4600685C
:10AAD0000AD87C2903D801F0FD03112B06D1838805
:10AAE000012B15D8032038BDF829F7E72146FFF7D9
:10AAF000DDFF0028F6D1AA880A4B5440E4B203EBEC
:10AB00004403B3F83C33002083EA1223AB80EAE726
:10AB10007D21FFF7CBFF286884F02001FFF7C6FFF7
:10AB2000E9E700BF60CB0108036810B55A1E114663
:10AB300003628B4211D84162022101770021016337
:10AB4000A1F58031C0E90A33C0E90D13934207D85B
:10AB5000C0E90F23C0E9113310BD04892144E8E79F
:10AB600001890A44F2E7012B10B5044608460AD0D1
:10AB7000022B0FD01BB963681044834200D910BD6B
:10AB80002289801AF9E72368881A8342F7D9228933
:10AB90001044FAE79C21024B024A034808F0F4FCF7
:10ABA000DE0102085A0602083E0202082DE9F047BB
:10ABB00090F8242012B90D20BDE8F087013A05680D
:10ABC000D2B280F8242095F81C90B9F1020FF2D08F
:10ABD00000EBC204AB6AA6689E42ECD1D5F82CA06B
:10ABE00031464B4652462846FEF759FA676880467A
:10ABF00031464B463A462846FEF751FA804506460E
:10AC0000D9D94B46524639462846FEF748FA01281C
:10AC1000D1D90236464512DC841EA4B23C702B7F8B
:10AC2000012239462846FFF79EFF240A0470014698
:10AC3000012228462B7FFFF796FF0020BCE7072064
:10AC4000BAE7134610B501220C78FFF78CFF0378A2
:10AC50002402E01880B210BD2DE9F04F8B4B85B077
:10AC6000D3F84444261D04F58055216CA06A814226
:10AC700008D1E26B636A9A4204D195F8A039022B9D
:10AC80007CD0B5E095F8A039012B00F0A880022B0C
:10AC900074D0002BEBD194F8C830012B04D194F878
:10ACA0009830002B00F0A4804FF6FF737E21D5F87A
:10ACB0008409A5F88839FFF7F9FE002840F098804C
:10ACC000236CA26A934203D1E06B616A884211D07F
:10ACD00094F8391021B99B1A18BF012384F8383031
:10ACE00094F83830304604EB8303DB6BC4E911334E
:10ACF00005F0CAFF012385F8A03994F83920032A0A
:10AD000002D0002A40F08480236CA16A8B4203D1D8
:10AD1000E76B606A87422ED094F89800009022B9C1
:10AD20005B1A18BF012384F8383094F838800B2759
:10AD300004EB880ADAF83C90DAF824B04946594521
:10AD40006AD13046CAF83C10FDF73EF9002384F87A
:10AD500039304FF6FF73A769638767B133464246C0
:10AD60004946E069B847009B2BB194F8983013B975
:10AD7000012385F8AC3B022385F8A039D5F8843946
:10AD8000B5F888990DF1080893E8030088E80300F6
:10AD90006FEA090104F5CC5704371FFA81FA3846E7
:10ADA000C9B2FFF790FE002855D0D5F88439029833
:10ADB000B8F8042018609A80A5F8889918E0E16C2A
:10ADC00094F8383030460F78FFF7CDFEA36CE0647E
:10ADD000984202D1304605F057FF85F8A17904F575
:10ADE000CC5095F8A1190430FFF76DFE002884D0EF
:10ADF00004F58C50D5F87C410230241AA1B2002908
:10AE000041D0D5F878319847A4B2A0423BD0FEE7B4
:10AE1000012AD4D00027E0E7424630460191FFF7EF
:10AE200010FF10F4004F019901D0894589D1C0F37A
:10AE30000D00821C43463046FFF795FE013F17F098
:10AE4000FF0701467FF47BAF40F24531104B114ABA
:10AE5000114808F099FB38464FEA1A21FFF733FEF4
:10AE60000028A2D17E21D5F88409FFF71FFE002813
:10AE70009BD195F8AC3B85F8A009002B3FF4F5AECB
:10AE800085F8AC0BF1E605B0BDE8F08F08100020A6
:10AE9000AD060208C90602083E020208F8B5047FA2
:10AEA0000546022C0E4605D1E6210E4B0E4A0F48F0
:10AEB00008F06AFB2346B4FA84F4C76A01223946D3
:10AEC000FFF751FE6409083455F82430834203D05B
:10AED0003E70E8620020F8BD2846FDF796F8032092
:10AEE000F9E700BFF6060208120702083E02020850
:10AEF00070B5D0E90A239A4204461DD1037F002190
:10AF0000083350F82350AB1A5D425D41FFF7C6FF8E
:10AF1000ED03014608B1032070BD2046FFF7BEFFD8
:10AF200006460028F7D1A16A2D0A237F0122204678
:10AF30000D70FFF718FE06700020EDE738B5037FAF
:10AF40000446022B0D4607D0FFF7D2FF30B9294641
:10AF50002046BDE83840A1E70D2038BD0320FCE7BE
:10AF600038B504460D460068C9B2FFF7E7FF20B9BF
:10AF70002068290ABDE83840E0E738BD50F8503B6A
:10AF8000598DEDE750F8503BD98FE9E7B0F8A410A0
:10AF90005030E5E738B504460D460068C9B2FFF702
:10AFA000CDFF80B92068C5F30721FFF7C7FF50B96F
:10AFB0002068C5F30741FFF7C1FF20B92068290EBB
:10AFC000BDE83840BAE738BD036893F8281071B17E
:10AFD0000A2906D84FF4FA62074B11FB02315030B0
:10AFE000D8E7192905D841F28832044BF5E704491E
:10AFF000F5E70021F3E700BF40CB0D00B0DB2300F5
:10B00000CC3F0D0070B590F824500446032D1DD898
:10B010000668337F022B19D03046FFF769FF0146DF
:10B02000B0B9F36A04EBC5056B60B36AAB60206826
:10B03000FFF784FF48B901462068FFF77FFF20B97A
:10B0400094F82430013384F8243070BD0D20FCE7DF
:10B050000320FAE72DE9F041044694F82470002F0C
:10B0600033D1246894F81C80B8F1020F38D0A56A57
:10B07000434629462046E26AFEF711F801280646B3
:10B080002CD9294642462046FFF7DBFD023EC6F397
:10B090000D06304386B2C0F3072028702946434688
:10B0A00001222046FFF75FFD0670E56AA562227F58
:10B0B00004EB8203196A21631D62E56815B123461A
:10B0C0002069A8470223237705E02046FFF76EFD9D
:10B0D00007460028C1D03846BDE8F081E562E6E7C2
:10B0E0000D27F8E770B5D1B20446006816461D4634
:10B0F000FFF724FF30BB2068C6F30721FFF71EFFD0
:10B1000000BB2068C6F30741FFF718FFD0B92068DD
:10B11000310EFFF713FFA8B92068E9B2FFF70EFF61
:10B1200080B92068C5F30721FFF708FF50B92068F0
:10B13000C5F30741FFF702FF20B92068290EBDE8DB
:10B140007040FBE670BD00F58B5310335030D3E9EF
:10B150000023C7E77F2973B51DD9B1F5804F1CD3F4
:10B16000B1F5001F1BD3B1F1805F34BF042205226B
:10B1700000246D46561EB442CBB212D102F1080132
:10B18000694403F07F0301F8093C0068694605F053
:10B1900085FC02B070BD0122EAE70222E8E7032243
:10B1A000E6E763F07F0305F8013BC9090134E2E7F4
:10B1B0002DE9F04111F00F0804460D4617461E46D2
:10B1C000006828D0002384F82430FCF71EFF0123F8
:10B1D0000377436AC0E90A332946206805F0D0FCAA
:10B1E00010BB39462046FFF7B5FFE8B925682B7F2D
:10B1F000022B18D02846FFF77BFEB8B9EB6A314620
:10B20000A362AB6A2046E36294F8243084F82530C8
:10B21000BDE8F0419EE784F82480FCF7F6FE036A5F
:10B2200080F81C80D6E70D20BDE8F0810320FBE705
:10B23000F8B51B4BFF22D3F844540E462C4605F5B7
:10B24000805393F9547183F8542154F8500B2830EB
:10B25000FDF7C4FE3923062280212046FFF7A8FF10
:10B26000E8B9286DF9B205F08BFCC0B9286DF1B2D0
:10B2700005F086FC98B92046FFF7ECFE78B98021EE
:10B28000302306222046FFF793FF014638B9286D88
:10B2900005F076FC18B92046BDE8F840DAE6F8BDBE
:10B2A000081000202DE9F0470568044695F81C9029
:10B2B0000E46B9F1020F25D0AB6AD0F82C80984524
:10B2C00023D14B464146EA6A2846FDF7E8FED4F80A
:10B2D00028A007464B46524641462846FDF7DFFE6A
:10B2E000874212D9C5F82CA094F8253000212046B9
:10B2F00084F82430FFF72EFF28B931462046BDE8F8
:10B30000F04727E70D20BDE8F0870720FBE7022183
:10B310005030C7E7024B006D197805F031BC00BF13
:10B32000804A002010B5074B0446D3F8240308F0E8
:10B3300047F80A2390FBF3F1206DC9B2BDE8104035
:10B3400005F01EBC08100020024608B50C20FCF7D2
:10B3500032FFBDE80840014602F15000A2E7024674
:10B3600008B50C20FCF727FFBDE80840014602F1B4
:10B37000500097E738B511F0300F00F1500408BFC6
:10B38000C0F89C201546002306222046FFF710FF38
:10B3900040B929462046FFF7DDFE18B92046BDE832
:10B3A000384057E638BD2DE9F74304460D4691462F
:10B3B0001E466846134618492A22FCF7C7FFDDE9F6
:10B3C00000782FB918F0010F02D1DEB932461AE029
:10B3D00004F150064B46062229463046FFF7E8FEA8
:10B3E000B8B918F0010F4FEA680318BFE35804EB2F
:10B3F000680018BFDF59B84758B9304603B0BDE8F8
:10B40000F04327E60D222946204603B0BDE8F0436D
:10B41000B0E703B0BDE8F0839CD00108F8B506465C
:10B42000002700F5805595F8D24095F8D330A34217
:10B4300001D1002033E004F21A2406EBC402137990
:10B44000590616D406EBC404237923F04003237174
:10B4500095F8D2300133DBB20F2B85F8D230E2D130
:10B4600095F8D33085F8D2700E2B20D885F8D330DC
:10B47000D9E7C3F30100C3F38301537941EA001113
:10B48000926803F0030361F07F01022BC9B2C2F39B
:10B49000170205D13046FFF76DFF0028D2D0F8BD66
:10B4A000B3FA83F330465B09FFF77DFFF5E70F3B07
:10B4B000DBB2D9E72DE9F84FD0E92E321343044629
:10B4C00020D000254FF00109354FDFF8D8B000F546
:10B4D000805AC5F12001D4E92E30A5F12002EB40BD
:10B4E00000FA01F10B4320FA02F2134313F0010FAB
:10B4F000C5F12008A5F120060BD101351F2D07F15C
:10B500000C07E6D1012304F5805484F86831BDE8C6
:10B51000F88F3A68002A39D17B68772B14D1DBF891
:10B520004834D9070ED4580628D413F0180F27D161
:10B53000990727D49A0627D440F2847213420CBF8D
:10B540000722062202F170031A4680212046FFF7E7
:10B5500011FF0028D6D1D4E92E3209FA06F629FACD
:10B5600008F846EA080609FA05F123EA010322EA87
:10B570000602C4E92E321343BFD1C3E70222E1E73A
:10B580000822DFE70122DDE70322DBE79AF86831D2
:10B59000002BE0D0012380212046FFF704FFD8E7ED
:10B5A00078CB01080810002010B590F898300446B8
:10B5B00033B1D0F8CC30994204BF002380F89830E2
:10B5C0002046FFF72BFFC0B994F8D01089B10123B2
:10B5D0000C222046FFF7E7FE78B994F8C83084F8CB
:10B5E000D000042B1FBF636BC4F8CC30012384F858
:10B5F00098302046BDE810405CE710BD014BD3F801
:10B60000440457E708100020D0F89C105030A1E502
:10B6100010B500F1500404212046FFF79BFD20B92E
:10B620002046BDE81040032194E510BD03215030B1
:10B6300090E5002150308DE510B500F15004052152
:10B640002046FFF787FD70BB0C212046FFF782FDE7
:10B6500048BB18212046FFF77DFD20BB2221204654
:10B66000FFF778FDF8B940F201212046FFF772FD9F
:10B67000C8B940212046FFF76DFDA0B94121204601
:10B68000FFF768FD78B942212046FFF763FD50B906
:10B6900043212046FFF75EFD28B92046BDE8104053
:10B6A00040F2062156E510BD0B21503052E5042131
:10B6B00050304FE52DE9F843074616460C4600F199
:10B6C000500500297BD0002A79D1B1F80480D1F847
:10B6D000009028464146FFF743FC10B10120BDE829
:10B6E000F88342464946386D05F0D8F90028F5D16F
:10B6F00094F915102868C9B205F042FA0028EDD176
:10B700008021286805F03CFA0028E7D1002C60D0A1
:10B71000E17D090101F030012846FFF721FC0028F6
:10B72000DCD12846FFF76EFC01460028D6D104B1D3
:10B73000A179286805F024FA01460028CED104B189
:10B74000A17D286805F01CFA0028C7D1002C42D042
:10B75000D4E902232846FFF7C5FC0028BED12846BD
:10B76000FFF724FA0028B9D12846FFF74BFC002840
:10B77000B4D131462846FFF7EDFC0028AED128466B
:10B78000FFF714FA0028A9D12846FFF73BFC014631
:10B790000028A3D104B1217D286805F0F1F9002823
:10B7A0009CD1DCB121692846FFF7F4FB002895D134
:10B7B0002846FFF7FBF9003818BF01208FE700216A
:10B7C0002846FFF7CDFB002888D1002C90D12146D8
:10B7D00090E72146A0E700220023BBE72146E2E7ED
:10B7E000F8B50C4B0C46D3F84474154607F15006D7
:10B7F0007123062280213046FFF7DAFC48B92A4639
:10B8000021463846FFF756FF18B93046BDE8F840E4
:10B8100020E4F8BD081000202DE9F74F1F46344BF7
:10B820000D46D3F84444164604F5805898F8533131
:10B83000002B3CD043F0800B82B3106805F0F8FC7D
:10B84000C0F3001A002395F81C9088F8533104F1D6
:10B85000500806225946404609F00109FFF7A8FCA6
:10B8600028BB3846FCF7A7FC01464046FFF772FCB0
:10B87000E8B95146206D05F00FF9C0B94946206D71
:10B8800005F00AF998B95FB1286805F014FD88B988
:10B89000404603B0BDE8F04FFFF7DCBB9246D1E76E
:10B8A0003A4631462046FFF705FF0028ECD003B0AA
:10B8B000BDE8F08FB9F1000FEAD028460DF1030181
:10B8C000FEF709FF0028F2D1284601A9FEF7DAFEAB
:10B8D0000028ECD19DF80310206D05F051F90028E7
:10B8E000E5D140460199FFF755FB0028D0D0DEE7AF
:10B8F0000810002050F8503B198F41F0340129E422
:10B9000038B5044608460D460FF04AF94FF6FF7366
:10B91000984228BF1846294682B2206805F0BEF832
:10B92000014620B92068BDE83840FFF707BB38BDA5
:10B9300001495030E4E700BF94D20108002330B53C
:10B94000174A146824BB5468A14221D1C3F12004D2
:10B95000D0E90225A3F1200105FA04F4DA402243DC
:10B9600025FA01F10A4312F0010FC3F12004A3F1FB
:10B9700020020CD1012121FA04F401FA02F222433F
:10B980009940D0E900430C431343C0E9004330BD64
:10B990000133DBB21F2B02F10C02D2D1F7E700BF5B
:10B9A00078CB01082DE9F0478E461EF00F091646A8
:10B9B00019460EF00F0706D1022A02D1B830FFF760
:10B9C000BDFF00200EE000F5805393F8D35093F8AC
:10B9D000D280A5EB08020E2A06DDB8300E21FFF753
:10B9E000ADFF0320BDE8F08741F2D104CEF3011290
:10B9F00000EB020C1CF8044096464C453DD12C4609
:10BA00000E2C3ED804F21A2442F0400200EBC4008F
:10BA100042EA8702848842EA062222F080029205E6
:10BA200024F45F74920D24F0030422438280826820
:10BA3000013561F31702826083F8D350C1E70F3CF0
:10BA4000E4B20E2CFBD804F21A2400EBC40C9CF8D0
:10BA5000044014F0400F0CD004F0030AD64508D17E
:10BA6000C4F3830ACA4504D124F040048CF804408E
:10BA7000C5E708F101085FFA88F84545BFD9444693
:10BA8000DFE70F3CE4B2BBE7134602228AE710B5BA
:10BA9000EFF3108472B64FF0FF300FF0C4FB0A4B87
:10BAA000D3F84C24C3F84C04824282BFD3F850240C
:10BAB0000132C3F85024D3F850140346204610F046
:10BAC000ACFF184610BD00BF0810002030B500F1D3
:10BAD000800485B0204602A9FCF7FFFA10B10620C9
:10BAE00005B030BD204601A9FCF7DDFA0028F6D1EB
